S02B00006669726D776172655F7570646174655F65787465726E616C5F686F73745F7364696F5F6973702E735C
S214000000000008205D1500009F1500009D150000EB
S2140000109F1500009F1500009F1500009F1500000B
S2140000209F1500009F1500009F15000041A90000C5
S2140000309F1500009E15000071A900008D68000045
S214000040391800009F1500009F1500009F1500003E
S2140000509F1500009F1500009F1500009F150000CB
S2140000609F1500009F1500009F1500009F150000BB
S2140000709F1500009F1500009F1500009F150000AB
S2140000809F1500009F1500009F1500009F1500009B
S2140000909F1500009F1500009F1500009F1500008B
S2140000A09F1500009F1500009F1500009F1500007B
S2140000B09F1500009F1500009F1500009F1500006B
S2140000C09F1500009F1500009F1500009F1500005B
S2140000D09F1500009F1500009F1500003155000079
S2140000E0195500009F1500009F1500009F15000081
S2140000F09F1500009F1500009F1500009F1500002B
S2140001009F1500009F1500009F1500009F1500001A
S2140001109F1500009F1500009F1500009F1500000A
S2140001209F1500009F150000E57B00009F1500004E
S2140001309F1500009F1500009F1500009F150000EA
S2140001409F1500009F1500009F1500009F150000DA
S214000150000000000000000000000000000000009A
S214000160000000000000000000000000000000008A
S2140003B000000000000000000348044B834202D007
S2140003C0034B03B118477047F0060020F0060020E4
S2140003D0000000000548064B1B1AD90F01EBA301CD
S2140003E0491002D0034B03B118477047F0060020AF
S2140003F0F00600200000000010B5064C237843B934
S214000400FFF7DAFF044B13B10448AFF30080012373
S214000410237010BDF00600200000000074FE0A00E5
S21400042008B5054B1BB105490548AFF30080BDE88C
S2140004300840FFF7CFBF00BF00000000F406002012
S21400044074FE0A00A3F5803A704700BF174B002BD6
S21400045008BF134B9D46FFF7F5FF00218B460F465E
S2140004601348144A121A00F073F90E4B002B00D0F2
S21400047098470D4B002B00D0984700200021040021
S2140004800D000D48002802D00C4800F0A3FA00F03A
S21400049005FA2000290004F03DFF00F011F800BF27
S2140004A00000080000000000000000000000082017
S2140004B0F0060020904A0020D509000085140000B0
S2140004C008B50021044600F023FA034B1B6803B16D
S2140004D09847204605F0B7F944080020024A034929
S2140004E0034800F0C9B800BF000000201112000049
S2140004F0100000200C4B4168994210B5044601D00C
S21400050000F086FEA168094B994202D0204600F012
S2140005107FFEE168064B994204D02046BDE81040B5
S21400052000F076BE10BD00BF0C0700207407002048
S214000530DC0700202DE9F843314C324B3248DFF817
S214000540DC90DFF8DC80314F186000252946042354
S214000550082204F15C002E4EE360C4E90055C4E9AD
S2140005600455A5606566A56100F0F2F804F1580030
S214000570C4E90749C4E90987E66200F0B7F92946E5
S214000580244B6367082204F1C400C4E91A55C4E981
S2140005901E552567C4F8CC50C4F8805000F0D8F833
S2140005A004F1680304F1C000C4F88430C4E922985A
S2140005B0C4E9247600F09AF9174BC4F8DC302946D3
S2140005C004F596700822C4E93455C4E93855C4F8D1
S2140005D0D850C4F83451C4F8E85000F0B9F804F123
S2140005E0D003C4E93D87C4F8F09004F59470C4F8CD
S2140005F0FC60C4F8EC30BDE8F84300F077B900BF03
S2140006000C07002044080020DD0400002507000039
S214000610490700000900010012000200C1060000A0
S214000620E506000010B504460A4800F063F9636B5F
S21400063023B9094B094A1B68626323B1BDE8104021
S214000640044800F059B9FFF775FFBDE810400148AF
S21400065000F052B95408002044080020F5040000B9
S214000660014800F047B900BF54080020014800F0D8
S21400067043B900BF540800202DE9F84380460F46D2
S21400068016464FF00009D6E90154013D11D4A3895E
S214000690012B05F1FF3508D9B4F90E300133214698
S2140006A003D04046B84749EA00096B1C04F16804C9
S2140006B0EDD13668002EE6D14846BDE8F88300BF87
S2140006C010B50C46B1F90E1000F0BCF8002803DB9C
S2140006D0236D0344236510BDA38923F48053A381AF
S2140006E010BD00BF2DE9F0410C46B1F90C101F46B5
S2140006F0CB05054616460BD421F48051A1813B4616
S214000700B4F90E1032462846BDE8F04100F0B0B805
S214000710B4F90E100223002200F07EF8B4F90C1093
S214000720EAE700BF10B50C46B1F90E1000F074F8F9
S214000730B4F90C30421C0EBF23F4805343F48053AC
S2140007402065A38110BD00BFB1F90E1000F052B8AD
S214000750830730B547D0541E002A3ED0CAB203469F
S21400076001E0013C39D303F8012B9D07F9D1032C96
S2140007702CD9CDB205EB05250F2C05EB054535D953
S214000780A4F1100222F00F0C03F1100EE6444FEA1B
S214000790121C1A46156055609560D5601032724579
S2140007A0F8D10CF1010214F00C0F03EB021204F066
S2140007B00F0C13D0ACF1040323F0030304331344EB
S2140007C042F8045B9A42FBD10CF003042CB1C9B288
S2140007D01C4403F8011B9C42FBD130BD6446134603
S2140007E0002CF4D1F9E703461446C0E71A46A4469F
S2140007F0E0E700BF38B5074D0022044608462A60E9
S21400080005F016F8431C00D038BD2B68002BFBD033
S214000810236038BD4808002038B50C46084D84468D
S214000820114620461A4600232B60644605F041F820
S214000830431C00D038BD2B68002BFBD0236038BD8E
S2140008404808002038B50C46084D84461146204618
S2140008501A4600232B60644605F038F8431C00D087
S21400086038BD2B68002BFBD0236038BD480800201D
S21400087038B50C46084D8446114620461A460023D5
S2140008802B60644605F03CF8431C00D038BD2B684E
S214000890002BFBD0236038BD4808002070B50F4BF6
S2140008A00F4DAB42A3EB050607D0B610002455F853
S2140008B0043B01349847A642F9D811F0A5F9094D32
S2140008C0094B5E1BAB424FEAA60606D0002455F83D
S2140008D0043B01349847A642F9D870BDE4060020D0
S2140008E0E4060020E4060020EC060020704700BF67
S2140008F0704700BF704700BF704700BF024B13B180
S214000900024800F067B87047000000008514000039
S2140009102DE9F04F2D4BDFF8B88083B0834618687A
S214000920CDF804B00F46FFF7E5FFD8F800609EB19B
S2140009304FF001094FF0000A7468651E0CD40134AC
S21400094006EB84047FB1D4F80031BB420BD0013DE6
S2140009506B1CA4F10404F5D11C4B186803B0BDE869
S214000960F04FFFF7C9BF73682268013BAB420CBF6C
S2140009707560C4F800A0002AE9D0D6F88811D6F829
S21400098004B009FA05F30B420BD1904773685B4538
S21400099012D1D8F80030B342D9D01E46002ECBD1A3
S2140009A0DAE7D6F88C110B420BD1D4F880100198F8
S2140009B0904773685B45ECD0D8F80060002EBBD13A
S2140009C0CAE7D4F880009047E0E700BF3001002077
S2140009D058080020002301461A46184600F074BD49
S2140009E02DE9F84306460820894600F05FFDDFF84B
S2140009F0A4800546304600F0FFFBD8F808305F6854
S214000A0027F00307A7F11104A4EB09042C44B4FB58
S214000A10F5F4013C05FB04F4A54208DC0021304651
S214000A2000F01EFDD8F808303B44984205D030460A
S214000A3000F0E8FB0020BDE8F8836142304600F095
S214000A400FFD01300FD0114AD8F808303F1B47F091
S214000A5001075F60136830461B1B136000F0D2FB73
S214000A600120BDE8F8830021304600F0F9FCD8F8F4
S214000A700820831A0F2BDADD43F001035360044B82
S214000A8002491B68C01A0860D1E700BF5C08002056
S214000A90340100204001002000297DD0F8B50C4626
S214000AA0064600F0A9FB54F8042C794FA4F108057B
S214000AB022F0010105EB010CB868DCF80430604553
S214000AC023F0030300F08880D207CCF8043032D439
S214000AD054F8082CAD1A1144AA6807F1080082429F
S214000AE06BD00CEB0304D4F804E0EC68D4601EF082
S214000AF0010FA26000F0898041F001036B60CCF822
S214000B000010B1F5007F24D27868CB08012249098D
S214000B1001338A40024357F833107A6007EBC3026A
S214000B20083AC5E9021247F83350CD603046BDE8B2
S214000B30F84000F067BB0CEB03025268D2072CD5D6
S214000B4041F00103B1F5007F44F8043CCCF80010F6
S214000B50DAD3B1F5206F4FEA512358D28B0903F14F
S214000B60390003F13802C300F818FB5808389842D9
S214000B7003D166E09B68984204D05A6822F00302CC
S214000B808A42F7D8D868C5E902308560DD6030460D
S214000B90BDE8F84000F036BB7047194407F108007E
S214000BA0DCF80830834243D0DCF80C20DA6093602F
S214000BB041F001036B606950A3E70CEB0302526837
S214000BC0D0075FD40B44DCE90212CA60916043F0A0
S214000BD001026A60EB50A9E70B44D10707D454F82A
S214000BE0082CAD1A1344D5E90212CA60916043F08E
S214000BF001026A60274ABD6012689A4296D8264B60
S214000C0030461968FFF7ECFE90E71944C8E7142B46
S214000C1008D9542B1DD80B0B03F16F0003F16E029D
S214000C20C300A1E703F15C0003F15B02C3009BE78E
S214000C3041F001033D617D61A860E8606B6069502A
S214000C4074E779689210012404FA02F20A437A6083
S214000C5099E7B3F5AA7F06D8CB0B03F1780003F12A
S214000C607702C30080E740F25452934206D88B0CBA
S214000C7003F17D0003F17C02C30075E74FF47E7339
S214000C807E2271E741F001036B60CCF800104DE75F
S214000C9040010020380100208C0800202DE9F04F8C
S214000CA001F10B05162D85B0064623D8102900F253
S214000CB0BC8000F0A1FA102518230221B84F3B444F
S214000CC0A3F108025C68944200F029816368E26838
S214000CD023F003032344A168CA6091605A6842F077
S214000CE0010230465A60083400F08CFA204605B0FF
S214000CF0BDE8F08F35F0070500F19780A94200F2B5
S214000D00948000F079FAB5F5FC7FC0F071816B0A2B
S214000D1000F08F80042B00F22D81AB0903F139011E
S214000D2003F1380CCB009E4F3B44A3F108005C68EF
S214000D30A04206D10CE0002A80F2EE80E468A042D1
S214000D4006D0636823F003035A1B0F2AF3DD6146BF
S214000D50DFF860C23C69644500F0CC80626822F02F
S214000D600302531B0F2B00F34781002BC7E904CC6B
S214000D7080F23481B2F5007F80F0D780D30878689F
S214000D8001334FEA521E012202FA0EF2024357F8CE
S214000D9033E0C4F808E007EBC3000838E0607A6088
S214000DA047F83340CEF80C408B1001209840904214
S214000DB045D8104206D121F003014000104201F14F
S214000DC00401FAD007EBC1094C468E46D4F80C80D5
S214000DD0444508D1DAE0002B80F2F080D8F80C8089
S214000DE0444500F0D380D8F8042022F00302531BB9
S214000DF00F2BF0DD3046D8E9026408EB050145F01C
S214000E000105C8F80450F460A66043F00104C7E981
S214000E1004114C60C1F808C0C1F80CC048F8023094
S214000E2000F0F0F908F1080460E70C2333600024B2
S214000E305CE74FF4007340214FF03F0C73E7BC684B
S214000E40636823F00309A94503D3A9EB05030F2B19
S214000E5052DC544BDFF860B11B68082003F1100821
S214000E6000F024FBDBF8003001900133A84404EBCB
S214000E70090205D008F1FF388044434203EA080817
S214000E8041463046029200F0EBFAB0F1FF3F029A7C
S214000E90824600F0CC80824200F2C780424B019925
S214000EA0186840441860844601F1FF3140F0EB803A
S214000EB01AEA010F40F0E780D7F808A0C84448F0C7
S214000EC00102CAF80420394B1968814238BF1860FD
S214000ED0374B1968814238BF1860544622F0030821
S214000EE0A845A8EB050301D30F2B05DC304600F020
S214000EF089F99CE77A6857E7621943F0010345F0E1
S214000F00010565603046BA60536000F07BF908342E
S214000F10204605B0BDE8F08FE2682344DBE6DC68D7
S214000F20A3427FF4D3AE023112E7B2F5206F4FEA48
S214000F30522374D3142B00F2098103F15C00C00025
S214000F405B3307EB000E3858AEF1080E864503D12A
S214000F50E2E08068864504D0436823F003039342AA
S214000F60F7D8D0F80CE07A68C4E9020ECEF808404C
S214000F70C46019E7142B5DD9542B00F2EF802B0BBD
S214000F8003F16F0103F16E0CCB00CCE60EF1010EFF
S214000F901EF0030F04F108047FF418AF55E000BFFD
S214000FA0400100208C0800205C08002088080020F3
S214000FB084080020480100203401002042444446B2
S214000FC05368D8F80C1043F00103536054F8083FF8
S214000FD03046D9608B6000F015F987E6224430462B
S214000FE0536843F001035360083400F00BF97DE6C4
S214000FF0E90805F1080361E6611945F00105656039
S21400100043F00105C7E904113046C1F808C0C1F82D
S2140010100CC04D60A35000F0F5F8083466E693095E
S21400102003F13900C00038338BE7BC4223D0BC68DC
S214001030626853E703F15C0103F15B0CCB0072E6D8
S21400104059F808394B4540F0D28011F0030F01F1F2
S214001050FF31F5D17B6823EA00037B6040009842AD
S2140010603FF6EDAE18B9EAE640000EF1040E18425F
S214001070FAD07146A6E65F4B0199186808EB000C9B
S2140010800139C3F800C0DBF8000001301BBFAAEB33
S21400109002026244CBF800A01A601AF00702CDE9FB
S2140010A0022342D0C2F10802019B9244D04413446A
S2140010B008EA01001A1A02EA010B5946304600F007
S2140010C0CFF9421C039B76D0A0EB0A0000EB0B087E
S2140010D01868C7F808A048F001025844BC42CAF88D
S2140010E0042018603FF4EFAEB9F10F0F40D96168E5
S2140010F0A9F10C0222F0070201F001011143616020
S214001100A1184FF0050C0F2AC1F804C0C1F808C09A
S21400111046D8DAF80420D6E69A104FF001087B6825
S21400112008FA02F21A437A601EE7019B0AEB0802ED
S2140011300A409A1A02EA010B5946304600F090F926
S214001140431C039BC0D1DDF808B0C1E7542B13D86D
S214001150130B03F16F00C0006E33F2E6B3F5AA7FFF
S21400116013D8EB0B03F1780103F1770CCB00DAE52B
S2140011700123CAF80430B9E6B3F5AA7F23D8D30B07
S21400118003F17800C0007733DBE640F25452934216
S21400119023D8AB0C03F17D0103F17C0CCB00C2E538
S2140011A0304604F108010193FFF776FC019BD7F85F
S2140011B008A01868ADE7029A083A9044A8EB0A0817
S2140011C04FF0000B84E740F2545083420BD8930C48
S2140011D003F17D00C0007C33B3E64FF47E737F21BD
S2140011E04FF07E0C9FE54FF47E707E23A9E67B6869
S2140011F034E700BF5C0800200148FFF77BBB00BF58
S2140012004C0800200148FFF777BB00BF4C080020C1
S21400121070B5002940D006460C4610B1436B002B33
S2140012203DD0636EDD0733D4A38998053AD52146B1
S214001230304600F04FF8E36A054633B1E1693046C0
S21400124098470028B8BF4FF0FF35A3891A063BD44D
S214001250216B41B104F14003994202D03046FFF7BA
S2140012601BFC00232363616C21B13046FFF714FC9E
S21400127000236364FFF7F4F9636E0022DB07A281A4
S2140012801ED5A06DFFF734FBFFF7F0F9284670BDBA
S214001290B4F90C30002BCAD10025284670BDFFF7E4
S2140012A0C1F9BEE7A06DFFF725FBB4F90C30002BA3
S2140012B0BDD1636ED907EFD4A06DFFF71DFBEBE73A
S2140012C0A06DFFF719FBDCE721693046FFF7E4FB6A
S2140012D0BEE700BFB1F90C202DE9F0410C4611071E
S2140012E080464BD4616842F400630029A38160DD28
S2140012F0A56A002D3FD0002112F48052D8F8006075
S214001300C8F8001062D10123E1694046A847431C93
S21400131002466BD0B4F90C30A56A5F0705D5636842
S214001320D21A236B0BB1E36BD21AE1690023404655
S214001330A847451C4CD1D8F800201D2A3DD8324B72
S214001340134113F0010338D16360B4F90C302169FE
S214001350216023F40061A181D90452D4216BC8F81E
S214001360006041B104F14003994202D04046FFF7C5
S21400137093FB002323630020BDE8F0812669002E3E
S214001380F9D02568266090070CBF63690023AD1B63
S214001390A3600BE02B463246E169676A4046B847D1
S2140013A0B0F1000CA5EB0C05664406DD002DF1DC63
S2140013B0E1E7E16B00299BDCDDE7B4F90C3043F094
S2140013C04003A3814FF0FF30BDE8F081226DA4E713
S2140013D0B4F90C302269226023F40062A281DB0497
S2140013E04FF000026260B9D52065B7E7D8F8003044
S2140013F0002B8FD01D2B01D0162BDED1C8F8006035
S214001400B9E7002AAAD1EFE7FEFFBFDF38B50C46E2
S214001410054608B1436B03B3B4F90C0088B1636E9C
S214001420DB0701D481050FD528462146FFF752FF7A
S214001430636EDA07054602D4A3899B0508D52846BD
S21400144038BD0546284638BDA06DFFF753FAEBE7D2
S214001450A06DFFF751FA284638BDFFF7E3F8DBE743
S21400146038B5074D0022044608462A600FF02AFFCA
S214001470431C00D038BD2B68002BFBD0236038BD42
S2140014804808002038B5074D074C2C1BA41005D083
S214001490013C55F8043D9847002CF9D1BDE838408A
S2140014A010F0B8BBF0060020EC060020082802D199
S2140014B04FF48050704708B500F04AF816230360D2
S2140014C04FF0FF3008BD00BF2DE9F047DFF87CA0E5
S2140014D00646DAF8000098460F469146FFF70AFAE5
S2140014E0184B1C6824B365681F2D24DC5EB96B1C82
S2140014F00235DAF80000636044F82570FFF7FCF95F
S2140015000020BDE8F08704EB85010123C1F8889030
S214001510D4F88821AB401A43022EC4F88821C1F8BB
S2140015200881E4D1D4F88C211A43C4F88C21DEE774
S214001530054C1C60D7E7DAF80000FFF7DDF94FF03E
S214001540FF30DEE758080020900800203001002019
S214001550014B1868704700BF0C00002000F0F0F840
S2140015600F4C104DAC420ADA21686268A3689B00F3
S214001570043BA2BFC858D050FAE70C34F2E70A4B37
S2140015800A4CA34208DA19685A680020043AA4BF35
S2140015908850FBE70833F4E7FEF758FFFEE7FEE760
S2140015A010FF0A001CFF0A001CFF0A001CFF0A00AE
S2140015B080B582B000AF00F025F878600A4BD3F80B
S2140015C008311B0AC3F308033B603B6801337A68A3
S2140015D0B2FBF3F37B60054A7B6813607B681846B2
S2140015E00837BD4680BD00BF00400E4050050020B5
S2140015F080B400AF024B1846BD465DF8047B7047CA
S21400160000A24A0480B483B000AF334BD3F89430C2
S21400161003F00703023B042B49D801A252F823F03B
S214001620451600003D16000035160000A516000001
S2140016304D160000294B1B687B603CE04FF40043CE
S2140016407B6038E0264B1B687B6034E0224B9B684F
S2140016501B0C03F01F03073B072B1FD801A252F8F1
S21400166023F000BF851600009D1600009D160000A2
S2140016709D1600008B1600009D16000091160000B7
S21400168097160000174B7B600BE0174B7B6008E05B
S214001690164B7B6005E0164B7B6002E000237B6008
S2140016A000BF08E0134B1B685B087B6003E0114B30
S2140016B01B687B6000BF084BD3F800311B0A03F0A1
S2140016C01F0301337A68B2FBF3F318460C37BD46A6
S2140016D05DF8047B704700BF00400E404C050020BC
S2140016E0480500200024F4000048E801006CDC02F5
S2140016F080F0FA025405002080B400AF034B1B684C
S2140017001846BD465DF8047B704700BF48050020BC
S21400171080B582B000AF7860074A7B681360074BDD
S214001720D3F8943003F00703022B01D1FFF740FFF4
S21400173000BF0837BD4680BD4805002000400E406B
S21400174080B400AF074B084A9A60064BD3F888303F
S214001750044A43F47003C2F8883000BFBD465DF803
S214001760047B704700ED00E00000000080B400AF8E
S2140017704FF400431846BD465DF8047B704780B4BE
S21400178000AF4FF47A731846BD465DF8047B704789
S21400179080B400AF034B1B681846BD465DF8047B5B
S2140017A0704700BF4C05002080B483B000AF78605F
S2140017B0044A7B68D36200BF0C37BD465DF8047BE5
S2140017C0704700BF00300E4080B483B000AF786032
S2140017D0064B1A6B7B68DB43044913400B6300BF60
S2140017E00C37BD465DF8047B704700BF00300E40E6
S2140017F080B483B000AF7860054B1A6B04497B68F1
S21400180013430B6300BF0C37BD465DF8047B70477F
S21400181000300E4080B483B000AF064B1B6B7B607D
S214001820044B5A6A7B68134018460C37BD465DF871
S214001830047B704700300E4080B500AF00F002F821
S21400184000BF80BD80B582B000AFFFF7E3FF7860D1
S2140018507B68002B1CDA224B1B681B68002B12D0FF
S2140018601F4B1B681B683B601D4B1B680822002132
S2140018701846FEF76DFF00F0D1F803461A463B689F
S2140018800021104698474FF00040FFF78DFF20E0FC
S2140018907B6803F08043002B1BD0124B1B681B6831
S2140018A0002B12D00F4B1B681B683B600D4B1B6850
S2140018B0082200211846FEF74BFF00F0AFF803465B
S2140018C01A463B680121104698474FF08040FFF7C4
S2140018D06BFF00F009F800BF0837BD4680BD00BFAB
S2140018E0740A0020700A002080B582B000AF002382
S2140018F07B6024E0444A7B6852F83330002B1BD0D0
S214001900424B1B681B68002B06D17B68DB003E4AF7
S21400191013443E4A13600FE03B4A7B68DB001344E7
S2140019209A883A4B1B689B889A4205D97B68DB00ED
S214001930354A1344354A13607B6801337B607B6805
S214001940042BD7DD00237B6024E0314A7B6852F805
S2140019503330002B1BD02F4B1B681B68002B06D187
S2140019607B68DB002A4A13442A4A13600FE0284AA1
S2140019707B68DB0013449A88264B1B689B889A4238
S21400198005D27B68DB00224A1344224A13607B6838
S21400199001337B607B68042BD7DD1C4B1B681B6800
S2140019A0002B0FD01C4BDB6923F0FF02174B1B6884
S2140019B09B88DBB218491343CB614FF08040FFF79A
S2140019C017FF03E04FF08040FFF7FEFE114B1B6849
S2140019D01B68002B10D0104BDB6923F47F420D4BA5
S2140019E01B689B881B029BB20B491343CB614FF0CD
S2140019F00040FFF7FDFE03E04FF00040FFF7E4FE77
S214001A0000BF0837BD4680BD200A0020700A0020AF
S214001A10480A0020740A002000300E4080B584B0CA
S214001A2000AF03F09FF8F860D7ED037A9FED177AC2
S214001A30F4EEC77AF1EE10FA03D54FF04343FB609D
S214001A400AE0D7ED037A9FED127AF4EEC77AF1EE4C
S214001A5010FA01DD0F4BFB60D7ED037AB6EE007A85
S214001A6077EE877A9FED0C7A77EE877AFDEEE77A47
S214001A70C7ED017A3B795BB2DBB2803BDBB2FB722F
S214001A8097F90B3018461037BD4680BD000000C3DE
S214001A900000FE420000FE420000004380B483B017
S214001AA000AF786001227B6802FA03F318460C3711
S214001AB0BD465DF8047B704780B487B000AFF86021
S214001AC0B9607A60FB6803F1424303F58013DA00DD
S214001AD0BB6813449B007B617B697A681A6000BF11
S214001AE01C37BD465DF8047B704780B485B000AFF8
S214001AF0786039607B6803F1424303F58013DA00AF
S214001B003B6813449B00FB60FB681B681846143751
S214001B10BD465DF8047B704780B485B000AF786042
S214001B2039607B6803F1C063FB60FB683A681A6043
S214001B3000BF1437BD465DF8047B704780B485B09F
S214001B4000AF786039607B6803F18063FB60FB68F8
S214001B503A681A6000BF1437BD465DF8047B7047CC
S214001B6080B485B000AF78607B68002B02D07B68BD
S214001B70B3F5004F7B68BB60BB68002B01D1202308
S214001B8003E0BB68B3FA83F3DBB2C3F11F03FB6069
S214001B90FB6818461437BD465DF8047B704780B571
S214001BA084B000AF78607B680133BB60BB68002BF5
S214001BB001D1202303E0BB68B3FA83F3DBB2C3F1A1
S214001BC01F03FB60F868FFF769FFFB6818461037CD
S214001BD0BD4680BD80B400AF064B1B6803F04003D3
S214001BE0002B01D1012300E000231846BD465DF816
S214001BF0047B70473C300E4080B500AFFFF7EAFF2D
S214001C00034683F00103DBB2002B08D100BF12218C
S214001C100448FFF76AFF0346002BF8D100E000BF38
S214001C2080BD00BF04300E4080B500AFFFF7E4FF74
S214001C30034B5B681B0C03F00303DBB2184680BD46
S214001C4000300E4080B400AF4FF080431B6C9BB258
S214001C50002B14BF01230023DBB21846BD465DF8F7
S214001C60047B704780B400AF4FF0804300221A64B4
S214001C7000BFBD465DF8047B704780B400AF4FF0F0
S214001C80804341F671321A6400BFBD465DF8047B9E
S214001C90704780B400AF4FF080435B681846BD467F
S214001CA05DF8047B704780B483B000AF78604FF077
S214001CB080427B68536000BF0C37BD465DF8047BEE
S214001CC07047000080B584B000AF78600123FB60E9
S214001CD07B68124A934204D80023FB600023BB6053
S214001CE008E07B680E4A934202D80123BB6001E0FD
S214001CF00223BB60FA6810210A48FFF7DDFE094B95
S214001D00D3F8003123F04072BB681B060549134325
S214001D10C1F8003100BF1037BD4680BD0048E8015D
S214001D200090D00300400E4080B483B000AF054B57
S214001D301B687B607B6818460C37BD465DF8047BE5
S214001D40704700BF5805002080B582B000AFFFF78F
S214001D5059FC7860064BD3F800311B0A03F01F03CA
S214001D6001337A6802FB03F318460837BD4680BD88
S214001D7000400E4080B582B000AF0D4801F0BEF9BD
S214001D800346FB70FB78072B05D0092B07D1FFF71E
S214001D9039FC786006E0FFF7C7FF786002E00023B2
S214001DA07B6000BF7B6818460837BD4680BD00BF15
S214001DB006000E0080B584B000AF78607B68002B0C
S214001DC003D07B68012B06D00BE01E4801F096F985
S214001DD00346FB7207E01C4801F090F90346FB72CD
S214001DE001E0002329E0FB7A013B072B21D801A262
S214001DF052F823F0151E0000331E0000331E0000AC
S214001E00231E0000331E0000331E00001B1E0000B1
S214001E102B1E00000023FB600EE0FFF785FFF86036
S214001E200AE0FFF769FCF86006E0FFF78DFFF86050
S214001E3002E00023FB6000BFFB6818461037BD4673
S214001E4080BD00BFB8003200B900340080B582B053
S214001E5000AF194801F052F90346FB70FB78043BCB
S214001E60062B21D801A252F823F000BF911E0000D5
S214001E70891E0000A91E0000991E0000A91E000071
S214001E80A91E0000A11E00000C4B1B687B600EE024
S214001E90FFF732FC78600AE0FFF746FF786006E05E
S214001EA0074B1B687B6002E000237B6000BF7B68FB
S214001EB018460837BD4680BD0A7B3600540500200C
S214001EC05C05002080B584B000AF78607B68002B8E
S214001ED01AD11A4801F012F90346FB7200BFFB7ACA
S214001EE0043B062B22D801A252F823F0151F00004F
S214001EF00D1F00002D1F00001D1F00002D1F0000DD
S214001F002D1F0000251F0000002313E00C4B1B684C
S214001F10FB600EE0FFF7F0FBF8600AE0FFF704FF57
S214001F20F86006E0074B1B68FB6002E00023FB60DE
S214001F3000BFFB6818461037BD4680BD0B7C3800D6
S214001F40540500205C05002080B582B000AF214813
S214001F5001F0D4F80346FB70FB78023B092B31D81E
S214001F6001A252F823F000BFB51F0000BD1F0000FD
S214001F70991F0000AD1F0000C51F0000C51F000010
S214001F80C51F0000C51F0000911F0000A11F000014
S214001F90114B1B687B6018E0FFF7AEFB786014E01F
S214001FA0FFF7AAFB03465B007B600EE00B4B1B684B
S214001FB07B600AE0FFF7ECFB786006E0FFF7D6FBF5
S214001FC0786002E000237B6000BF7B681846083715
S214001FD0BD4680BD0C7F3A005C05002054050020FD
S214001FE080B584B000AF78603960FFF752FE0346D4
S214001FF003F04073FB600023BB6012E01A4ABB6824
S214002000DB0013441A793B68DBB29A4206D1164AC3
S214002010BB6852F833307A689A4206D9BB680133F7
S214002020BB60BB68062BE9D900E000BFBB68072B86
S21400203002D10323FB6005E00B4ABB68DB001344B8
S2140020405B79FB60FB681B06FB60FFF722FE03461E
S21400205023F04073FA681343FB60F868FFF723FE2B
S21400206000BF1037BD4680BD201C010080B582B081
S21400207000AFFFF7E7FD0346FB71FFF7FEFDFFF736
S214002080B7FA034600211846FFF7AAFFFB79002B94
S21400209001D0FFF7E7FD00BF0837BD4680BD000052
S2140020A080B584B000AF786039600C4BFB603B684D
S2140020B0022B01D10A4BFB607A68FB689A4204D96E
S2140020C008490948FFF728FD03E006490648FFF7D8
S2140020D035FD00BF1037BD4680BD00BF80D543022A
S2140020E00024F400020202000001004080B582B025
S2140020F000AF786039607B680B4A934209D93B6829
S214002100002B06D14FF480514FF08040FFF704FDBE
S21400211006E04FF480514FF08040FFF70FFD00BF00
S21400212000BF0837BD4680BD80F0FA0280B584B097
S21400213000AF78603960FFF785FD0346FB73FFF755
S2140021409CFD39687868FFF74BFF39687868FFF7B9
S214002150A7FF39687868FFF7C9FFFB7B002B01D023
S214002160FFF780FD00BF1037BD4680BD80B400AFCE
S214002170044B5B6A1B0903F003031846BD465DF873
S214002180047B704700400E4080B483B000AF786098
S214002190074B5B6A23F030027B681B01044913433C
S2140021A04B6200BF0C37BD465DF8047B704700BF2E
S2140021B000400E4090B585B000AF78600023BB604D
S2140021C07B68474A934213D07B68454A934211D8AE
S2140021D07B68444A93420BD07B68424A934209D8B4
S2140021E07B68414A934203D07B68404A934201E0B1
S2140021F000BF00E000BF786800F080FF0346FB6089
S2140022007B68374A934229D07B68354A93422CD85C
S2140022107B68344A93421AD07B68324A934224D869
S2140022207B68314A934204D07B68304A934207D099
S2140022301BE02F4BD3F8803003F00703FB6015E05C
S2140022402B4BD3F8843003F00703FB600EE0284BDB
S214002250D3F88C3003F00703FB6007E0244BD3F879
S214002260883003F00703FB6000E000BFFB68042B28
S2140022702DD801A252F823F0C92200008D220000BA
S21400228095220000A52200009D220000FFF76EFAAE
S214002290B8601FE0FFF77CFAB8601BE0FFF76FFA44
S2140022A0B86017E0FFF7AEF90446114BD3F80031DB
S2140022B01B0E03F0030301331846FFF7EFFB03463C
S2140022C0B4FBF3F3BB6005E00023BB6002E0002331
S2140022D0BB6000BFBB6818461437BD4690BD00BF44
S2140022E0050024000400220002001E000300200057
S2140022F000400E4080B483B000AF78600A4BD3F83D
S214002300443103F00103002B08D100BF064BD3F87D
S21400231040217B681340002BF8D100E000BF0C374B
S214002320BD465DF8047B704700400E4080B500AFA8
S2140023300321064800F0D2FC0321054800F0CEFC3D
S2140023400321044800F0CAFC00BF80BD40410500E0
S214002350504107006041090080B582B000AFFFF72A
S21400236051F93860FFF760FC0346022B1AD13A6831
S214002370224B1344224AA2FB0323DB0D7B607B68BF
S214002380002B02D07B68013B7B6079681D4800F01B
S214002390A5FC79681C4800F0A1FC79681B4800F091
S2140023A09DFC27E03A681A4B13441A4AA2FB032303
S2140023B01B0E7B607B68002B02D07B68013B7B603A
S2140023C07968104800F08AFC7968104800F086FCAE
S2140023D03A68114B1344114AA2FB03239B0E7B6001
S2140023E07B68002B02D07B68013B7B6079680648DF
S2140023F000F074FC00BF0837BD4680BDFF2C3101DD
S2140024006BCA5F6B40410500504107006041090000
S2140024107FF0FA02893BE655FFA14A04B5FA9BEE27
S21400242080B582B000AF7860786800F0E7FA0346BF
S214002430013318460837BD4680BD000080B586B01B
S21400244000AF78600B46FB7000233B617B681B0A7D
S21400245003F00F03013B0E2B7CD801A252F823F0A9
S2140024609D240000A92400005525000055250000E5
S214002470A3240000B5240000BF240000C9240000E7
S214002480D52400002B250000E124000003250000D1
S21400249055250000AF240000252500002F4B7B614A
S2140024A046E02F4B7B6143E02E4B7B6140E02E4B9A
S2140024B07B613DE02D4B7B6101233B6138E02C4B7B
S2140024C07B6110233B6133E02A4B7B614FF48073C2
S2140024D03B612DE0284B7B614FF480333B6127E066
S2140024E0264B7B61FB78002B14BF01230023DBB255
S2140024F083F00103DBB2FB70FB7803F00103FB7093
S21400250016E01F4B7B61FB78002B14BF01230023D2
S214002510DBB283F00103DBB2FB70FB7803F0010350
S214002520FB7005E0174B7B6102E0174B7B6100BF39
S2140025307B681B0B03F01F03FB603B69002B02D07C
S2140025403869FFF7D7FEFB781A46F9687869FFF70F
S214002550B3FA00E000BF1837BD4680BD00400E400D
S214002560B0400E40C0400E40C4400E40E0400E401A
S214002570E8400E40EC400E40F0400E4060410E40F9
S21400258064410E40F0410E4050410E4090B585B07B
S21400259000AF78607B6803F47813B3F5781F00F01B
S2140025A01082B3F5781F00F21782B3F5681F00F0AB
S2140025B00482B3F5681F00F20F82B3F5601F00F0C7
S2140025C0F781B3F5601F00F20782B3F5581F00F0DD
S2140025D0EB81B3F5581F00F2FF81B3F5501F00F0F2
S2140025E0D381B3F5501F00F2F781B3F5481F00F012
S2140025F0BC81B3F5481F00F2EF81B3F5401F00F031
S2140026008E81B3F5401F00F2E781B3F5381F00F066
S2140026104D81B3F5381F00F2DF81B3F5281F00F0B7
S2140026203281B3F5281F00F2D781B3F5201F00F0E2
S2140026308A81B3F5201F00F2CF81B3F5101F00F09A
S2140026408781B3F5101F00F2C781B3F5001F00F0B5
S2140026503C81B3F5001F00F2BF81B3F5F01F00F018
S214002660CB80B3F5F01F00F2B781B3F5E01F00F0A2
S2140026704381B3F5E01F00F2AF81B3F5D01F00F041
S2140026802981B3F5D01F00F2A781B3F5C01F00F073
S214002690E780B3F5C01F00F29F81B3F5B01F00F0CE
S2140026A0CD80B3F5B01F00F29781B3F5A01F00F000
S2140026B0B780B3F5A01F00F28F81B3F5901F00F02E
S2140026C0A080B3F5901F00F28781B3F5801F00F05D
S2140026D04881B3F5801F00F27F81B3F5602F00F0CC
S2140026E03C81B3F5602F00F27781B3F5402F74D0AC
S2140026F0B3F5402F00F27081B3F5202F4FD0B3F51D
S214002700202F00F26981B3F5002F39D0B3F5002FE2
S21400271000F26281B3F5C02F23D0B3F5C02F00F2CC
S2140027205B81B3F5802F0DD0B3F5802F00F2548176
S214002730002B03D0B3F5003F40D04DE1FEF762FF1B
S214002740F8604CE1FEF75EFFF860A74BD3F80C315B
S2140027501B0AC3F308030133FA68B2FBF3F3FB600A
S2140027603DE1FEF74FFFF8609F4BD3F818311B0A88
S214002770C3F308030133FA68B2FBF3F3FB602EE100
S214002780FEF740FFF860984BD3F81C311B0AC3F3E2
S21400279008030133FA68B2FBF3F3FB601FE1FEF7B0
S2140027A031FFF860904BD3F804311B0AC3F30803DB
S2140027B00133FA68B2FBF3F3FB6010E1FEF722FF89
S2140027C0F860894BD3F808311B0AC3F308030133BA
S2140027D0FA68B2FBF3F3FB6001E1FEF713FFF86063
S2140027E0814BD3F814311B0A03F01F030133FA6838
S2140027F0B2FBF3F3FB60F2E07C48FFF7DBFCF8602B
S214002800EDE07A48FFF7D6FCF860774BD3F8203136
S2140028101B0C03F00F03FA6822FA03F3FB60DEE0FA
S2140028207348FFF7C7FCF8606F4BD3F8303103F0FE
S2140028300303FA6822FA03F3FB60D0E06B48FFF765
S214002840B9FCF860684BD3F8203103F00F03184644
S214002850FFF724F90246FB68B3FBF2F3FB60BEE029
S2140028606248FFF7A7FCF8605F4BD3F820311B09DE
S21400287003F00F031846FFF711F90246FB68B3FB97
S214002880F2F3FB60ABE05948FFF794FCF860564B58
S214002890D3F820311B0B03F007031846FFF7FEF8AA
S2140028A00246FB68B3FBF2F3FB6098E04F48FFF785
S2140028B081FCF8604C4BD3F820311B0A03F003036D
S2140028C0FA6822FA03F3FB6089E04A48FFF772FCD5
S2140028D0F86084E04748FFF76DFCF860424BD3F899
S2140028E0283103F003031846FFF7D8F80246FB68C2
S2140028F0B3FBF2F3FB6072E03E48FFF75BFCF86068
S214002900394BD3F828311B0903F003031846FFF7A9
S214002910C5F80246FB68B3FBF2F3FB605FE03548A0
S214002920FFF748FCF860304BD3F828311B0B03F058
S214002930030304331846FFF7B1F80246FB68B3FBFF
S214002940F2F3FB604BE02C48FFF734FCF86046E0FF
S2140029502748FFF72FFCF86041E0FFF70BFAF86016
S2140029603DE0FFF7E1F9F86039E00020FFF722FAD2
S214002970F8601D4BD3F85C3103F003030133FA68AB
S214002980B2FBF3F3FB602AE00120FFF713FAF860CE
S214002990154BD3F85C311B0C03F003030133FA68C4
S2140029A0B2FBF3F3FB601AE0FFF750FAF86016E0AC
S2140029B00020FFF787FAF86011E0FFF7C5FAF86025
S2140029C00DE0FEF71FFE04467868FFF729FD034674
S2140029D0B4FBF3F3FB6002E00023FB6000BFFB6880
S2140029E018461437BD4690BD00400E4002001E003B
S2140029F005002400030020000400220080B584B0F7
S214002A0000AF78607B681B0903F00F03BB60BB68F0
S214002A10013B0B2B00F2408101A252F823F000BFCD
S214002A20512A0000612A0000712A0000912A000045
S214002A30A12A0000B12A0000C12A0000D12A000005
S214002A40B32B0000332C0000512C0000892C000012
S214002A50954BD3F800311B0A03F01F03FB601EE101
S214002A60914BD3F814311B0A03F01F03FB6016E1E9
S214002A708D4BD3F800311B0E03F00303FB60FB689D
S214002A8001331846FFF70AF80346013BFB6006E1F0
S214002A90854BD3F80C311B0AC3F30803FB60FEE03A
S214002AA0814BD3F818311B0AC3F30803FB60F6E02A
S214002AB07D4BD3F81C311B0AC3F30803FB60EEE022
S214002AC0794BD3F808311B0AC3F30803FB60E6E032
S214002AD07B68764A934230D07B68744A934264D8C7
S214002AE07B68734A934244D07B68714A93425CD8B1
S214002AF07B68704A93423CD07B686E4A934254D8B7
S214002B007B686D4A934226D07B686B4A93424CD8CA
S214002B107B686A4A93423AD07B68694A934244D1BA
S214002B20614BD3F8203103F00F03FB60F868FEF723
S214002B30B5FF0346013BFB603AE05B4BD3F8203120
S214002B401B0A03F00303FB60F868FEF7A7FF0346C3
S214002B50013BFB602CE0544BD3F820311B0903F0FB
S214002B600F03FB60F868FEF799FF0346013BFB6026
S214002B701EE04D4BD3F820311B0B03F00703FB6020
S214002B80F868FEF78BFF0346013BFB6010E0464B00
S214002B90D3F820311B0C03F00F03FB60F868FEF738
S214002BA07DFF0346013BFB6002E00023FB6000BFA5
S214002BB075E07B68434A934227D07B68414A93423C
S214002BC033D87B68404A934204D07B683F4A93429E
S214002BD00DD02AE0344BD3F8283103F00303FB6012
S214002BE0F868FEF75BFF0346013BFB6020E02E4BD8
S214002BF0D3F828311B0903F00303FB60F868FEF7DF
S214002C004DFF0346013BFB6012E0274BD3F828310B
S214002C101B0B03F00303FB60FB6804331846FEF748
S214002C203DFF0346013BFB6002E00023FB6000BF64
S214002C3035E07B68264A934206D11B4BD3F83031E9
S214002C4003F00303FB6002E00023FB6000BF26E006
S214002C507B68204A934204D07B681F4A934207D081
S214002C600EE0114BD3F85C3103F00303FB600AE07F
S214002C700D4BD3F85C311B0C03F00303FB6002E042
S214002C800023FB6000BF0AE0074BD3F804311B0AA1
S214002C90C3F30803FB6002E00023FB6000BFFB6891
S214002CA018461037BD4680BD00400E4080262E00D8
S214002CB000362C0080002A0080161800804612007D
S214002CC0800616009037300090071A0090171C00F8
S214002CD0A0091400B8003200B900340080B584B0F2
S214002CE000AF786039607B681B0903F00F03FB6058
S214002CF0FB68013B0B2B00F2F38101A252F823F094
S214002D00312D00007B2D0000932D0000B32D000018
S214002D10CF2D0000EB2D0000072E00003B2E0000FC
S214002D20832F00005930000083300000C5300000BB
S214002D30FFF79CF9AE48FEF7C5FFFFF7F7FAAD4B75
S214002D40D3F8003123F4F8523B681B02A949134319
S214002D50C1F80031FEF72CFCB860FEF765FF0346AD
S214002D601946B868FFF7E2F9FEF74CFC034618462A
S214002D70FEF7A8FFFFF7F0FAB3E19E4BD3F8143145
S214002D8023F4F8523B681B029A491343C1F81431E6
S214002D90A7E13868FEF7E4FE3860964BD3F80031BA
S214002DA023F040723B681B0692491343C1F800317A
S214002DB097E1904BD3F80C3123F4FF3323F4807360
S214002DC03A6812028B491343C1F80C3189E1894BEA
S214002DD0D3F8183123F4FF3323F480733A681202D1
S214002DE084491343C1F818317BE1824BD3F81C3178
S214002DF023F4FF3323F480733A6812027D491343A9
S214002E00C1F81C316DE1FFF731F97A4BD3F8083180
S214002E1023F4FF3323F480733A6812027549134390
S214002E20C1F80831FEF7C4FBB860FEF7FDFE0346A6
S214002E301946B868FFF77AF953E17B686E4A934201
S214002E4077D07B686C4A934200F299807B686B4A25
S214002E50934200F081807B68684A934200F28F803C
S214002E607B68674A934277D07B68654A934200F254
S214002E7086807B68634A934248D07B68614A934267
S214002E807DD87B68604A93422ED07B685E4A934228
S214002E9075D87B685D4A934204D07B685C4A93424F
S214002EA013D06CE03868FEF77AFE38600420FFF72F
S214002EB021FA504BD3F8203123F470223B681B04D0
S214002EC04C491343C1F820315AE04FF48020FFF7F5
S214002ED011FA484BD3F8303123F0030245493B68DA
S214002EE01343C1F830314BE03868FEF758FE3860BF
S214002EF00420FFF7FFF93F4BD3F8203123F00F02F1
S214002F003C493B681343C1F8203139E03868FEF786
S214002F1046FE38600420FFF7EDF9364BD3F8203133
S214002F2023F0F0023B681B0132491343C1F82031FD
S214002F3026E03868FEF733FE38600420FFF7DAF93B
S214002F402C4BD3F8203123F440723B681B022949EE
S214002F501343C1F8203113E03868FEF720FE3860CE
S214002F600420FFF7C7F9234BD3F8203123F4E042BF
S214002F703B681B031F491343C1F8203100E000BF24
S214002F80AFE07B68234A93424AD07B68214A93424B
S214002F9060D87B68204A934204D07B681F4A9342DD
S214002FA012D057E03868FEF7FAFD38604020FFF789
S214002FB0A1F9104BD3F8283123F003020D493B68E2
S214002FC01343C1F8283146E03868FEF7E8FD38605C
S214002FD04020FFF78FF9074BD3F8283123F0300253
S214002FE03B681B0103491343C1F8283133E000BF97
S214002FF00148E80100400E4080262E0000362C00D6
S21400300080002A00801618008006160080461200EF
S214003010A00914009037300090071A0090171C0083
S2140030203B687F2B01D83B680E2B3868FEF7B7FD50
S2140030300346043B3B604020FFF75CF92B4BD3F87C
S214003040283123F440523B681B0328491343C1F838
S214003050283100E000BF44E07B68254A93420ED149
S2140030604FF48020FFF746F9204BD3F8303123F099
S21400307003021E493B681343C1F8303100E000BF2D
S2140030802FE07B681B4A934204D07B681A4A93421F
S2140030900BD016E0154BD3F85C3123F0030213492E
S2140030A03B681343C1F85C310BE0104BD3F85C313E
S2140030B023F440323B681B040C491343C1F85C31CF
S2140030C000BF0EE0094BD3F8043123F4FF3323F49A
S2140030D080733A68120205491343C1F8043100E0D0
S2140030E000BF00BF1037BD4680BD00BF00400E4089
S2140030F0A0091400B8003200B900340080B485B0CE
S21400310000AF78600123FB737B6803F00F03BB609E
S214003110BB68013B0B2B00F2808101A252F823F022
S21400312051310000AD310000E33100005F32000095
S21400313029320000953200001B340000B93200002E
S214003140FD3200004733000087330000C73300001D
S214003150B64BD3F8943003F00703023B052B21D877
S21400316001A252F823F000BF8D3100008731000025
S21400317081310000933100009F310000993100003A
S2140031800223FB7311E00323FB730EE00423FB739F
S2140031900BE00D23FB7308E00E23FB7305E00A2308
S2140031A0FB7302E00523FB7300BF42E19F4BD3F89D
S2140031B0803003F00703042B0CD0042B0DD8012B12
S2140031C002D0022B03D008E00323FB7308E002239F
S2140031D0FB7305E00C23FB7302E00123FB7300BFC7
S2140031E027E1924BD3F8843003F00703013B032B0F
S2140031F016D801A252F823F0093200000F32000060
S2140032001B320000153200000323FB730BE0022381
S214003210FB7308E00C23FB7305E00623FB7302E058
S2140032200123FB7300BF04E1804BD3F8883003F022
S2140032300703042B0CD0042B0DD8012B02D0022B35
S21400324003D008E00323FB7308E00223FB7305E0CA
S2140032500C23FB7302E00123FB7300BFE9E0734B12
S214003260D3F88C3003F00703042B0CD0042B0DD8B6
S214003270012B02D0022B03D008E00323FB7308E0E7
S2140032800223FB7305E00C23FB7302E00123FB73B0
S21400329000BFCEE0654B1B6F03F00303002B04D08A
S2140032A0012B05D10923FB7305E00723FB7302E01E
S2140032B00123FB7300BFBCE05C4BD3F85C3103F02A
S2140032C03003302B13D0302B14D8202B0CD0202BCF
S2140032D010D8002B02D0102B03D00BE00123FB7379
S2140032E00BE00723FB7308E00423FB7305E00823C9
S2140032F0FB7302E00123FB7300BF9AE04B4BD3F84D
S2140033005C3103F44013B3F5401F18D0B3F5401FEB
S21400331000F28680B3F5001F0ED0B3F5001F7FD8ED
S214003320002B03D0B3F5801F03D079E00123FB7395
S21400333008E00723FB7305E00423FB7302E0082381
S214003340FB7300BF6CE0394BD3F8603103F0030326
S214003350032B67D801A252F823F000BF6D3300009C
S21400336073330000793300007F3300000523FB73BE
S21400337008E00423FB7305E00723FB7302E00A233F
S214003380FB7300BF4EE0294BD3F8643103F0030310
S214003390032B49D801A252F823F000BFAD3300003A
S2140033A0B3330000B9330000BF3300000523FB73BE
S2140033B008E00423FB7305E00723FB7302E00A23FF
S2140033C0FB7300BF30E0194BD3F8F03103F007036E
S2140033D0052B2DD801A252F823F000BFF5330000CC
S2140033E0FB33000001340000073400000D340000F9
S2140033F0133400000A23FB730EE00423FB730BE078
S2140034000B23FB7308E00523FB7305E00223FB7325
S21400341002E00323FB7300BF0AE00023FB7308E00F
S21400342000BF06E000BF04E000BF02E000400E4020
S21400343000BFFB7B18461437BD465DF8047B70471B
S21400344080B58AB000AF78600B46FB7003237B62C2
S214003450032387F823300023BB6100237B617B684E
S214003460112B19D1FB78042B03D1FEF745F97861AF
S2140034700BE0FB78052B08D100F0A0FA0346C04A03
S214003480934202D900F09AFA78617B69002B03D048
S2140034900021786900F0FAFD7B6803F00F033B61BA
S2140034A03B69013B0B2B00F2748201A252F823F019
S2140034B0E1340000E735000007360000EB35000079
S2140034C0F9350000A536000093390000C336000029
S2140034D039370000CF37000053380000D7380000D7
S2140034E0FB78023B0C2B00F2568201A252F823F026
S2140034F025350000313500003D3500004F35000011
S2140035009739000097390000973900009739000076
S21400351079350000973900009739000061350000C2
S2140035206D35000004237B62002387F8233029E0F2
S21400353003237B62012387F8233023E002237B6288
S214003540022387F823308F48FEF7BCFB1AE00123DE
S2140035507B62032387F823308A48FEF7B3FB11E02B
S21400356005237B62032387F823300BE007237B6267
S214003570072387F8233005E006237B62052387F8B8
S214003580233000BF97F82330072B06D097F8233058
S21400359001220121184600F087FAFEF767FDFEF7C4
S2140035A0C5FE7B69002B01D0FEF726FB764A7B6AB8
S2140035B05367FDF7FDFFF860FEF724F8034618464C
S2140035C0FEF780FBFEF730FB03461946F868FEF769
S2140035D0ADFD7B69002B03D10121002000F056FDD4
S2140035E0FEF7BAFEE4E1694BBB61BB69002B01D074
S2140035F0BB6900E0664BBB61BB69002B01D0BB69B1
S21400360000E0644BBB61BB69002B01D0BB6900E0E6
S214003610614BBB61FB78013B0B2B00F2BE8101A224
S21400362052F823F0553600005B3600006B3600007B
S2140036309B3900009B3900007B3600009B39000058
S2140036409B3900009B3900009B3900009B39000025
S214003650973600000023FB6120E0012201210020B4
S21400366000F022FA0223FB6118E00122012101206A
S21400367000F01AFA0123FB6110E0FDF7C3FF0346D2
S2140036801846FEF71FFB012200214448FEF714FAF5
S2140036900323FB6102E00423FB6100BFBB69FA69F8
S2140036A01A6085E1FB78072B02D0092B04D07FE156
S2140036B0354B00221A6703E0334B01221A6700BF1E
S2140036C076E1FB78013B072B00F2698101A252F8F4
S2140036D023F000BFF53600009F3900009F39000038
S2140036E00B3700009F3900009F390000FB360000B2
S2140036F01B3700000023FB6112E001220121042099
S21400370000F0D2F90123FB610AE001220121022028
S21400371000F0CAF90223FB6102E00323FB6100BF4D
S214003720194BD3F85C3123F03002FB691B011649B4
S2140037301343C1F85C313BE1FB78013B072B00F2F9
S214003740308101A252F823F069370000A339000047
S214003750A3390000A1370000A3390000A3390000F8
S2140037606F370000B13700000023FB6123E0012221
S2140037700121042000F098F90123FB611BE000BF43
S214003780002D31010148E80100400E4080400E4007
S2140037908C400E4088400E4084400E40B0400E40A4
S2140037A001220121022000F07FF90223FB6102E0E2
S2140037B00323FB6100BF804BD3F85C3123F4401237
S2140037C0FB691B057C491343C1F85C31F0E0FB78CC
S2140037D0043B062B00F2E78001A252F823F000BF5C
S2140037E00D380000FD370000A73900001D38000026
S2140037F0A7390000A73900002D380000012201215A
S214003800032000F051F90023FB6117E0012201219B
S214003810022000F049F90123FB610FE0012201219B
S214003820042000F041F90223FB6107E00122012198
S214003830052000F039F90323FB6100BF5E4BD3F887
S214003840603123F003025C49FB691343C1F8603121
S214003850AEE0FB78043B062B00F2A78001A252F8EC
S21400386023F000BF9138000081380000AB3900001B
S214003870A1380000AB390000AB390000B1380000B9
S21400388001220121032000F00FF90023FB6117E05D
S21400389001220121022000F007F90123FB610FE05D
S2140038A001220121042000F0FFF80223FB6107E05B
S2140038B001220121052000F0F7F80323FB6100BF79
S2140038C03D4BD3F8643123F003023B49FB691343B5
S2140038D0C1F864316CE0FB78023B092B67D801A283
S2140038E052F823F05D3900006D3900001D390000E4
S2140038F04D390000AF390000AF390000AF39000085
S214003900AF3900000D3900002D39000001220121D9
S214003910052000F0C9F80023FB612FE001220121F9
S214003920022000F0C1F80123FB6127E0FDF7E4FE6A
S214003930214B5B6A204A43F00803536201220121AF
S214003940022000F0B1F80223FB6117E001220121FA
S214003950032000F0A9F80323FB610FE001220121F8
S214003960002000F0A1F80423FB6107E001220121FA
S214003970012000F099F80523FB6100BF0E4BD3F839
S214003980F03123F007020C49FB691343C1F8F0310C
S2140039900EE000BF0CE000BF0AE000BF08E000BF7A
S2140039A006E000BF04E000BF02E000BF00E000BF8A
S2140039B02837BD4680BD00BF00400E4080B400AF33
S2140039C0034B1B681846BD465DF8047B704700BF76
S2140039D05405002080B584B000AF78601120FFF752
S2140039E08DFB01220021022000F05EF80023FB6020
S2140039F07B68DB7A022B09D0022B0DDC002B02D071
S214003A00012B06D008E00023FB6006E00323FB60E2
S214003A1003E00123FB6000E000BF214B5B6A23F05C
S214003A2003021F49FB6813434B620023FB60FDF74C
S214003A3063FE03461B4A934203D8FB6843F0080321
S214003A40FB60174B5B6A23F008021549FB681343BB
S214003A504B627B681B88DB027A6892881A43104B9D
S214003A60DA620F4B1B6B1B0D1B057A685288D2025D
S214003A7013437A68D2881146094A0B4313637B685E
S214003A801B7A1A037B685B7A1B0113437A68927A67
S214003A901A43034B5A6300BF1037BD4680BD00BFB4
S214003AA000400E4040787D0180B588B000AF0346E8
S214003AB0FB710B46BB7113467B71FB79052B00F23D
S214003AC0BF8001A252F823F0293B0000173B0000FC
S214003AD0F33A0000E13A0000053B00003F3B0000DF
S214003AE001237B6102233B610123FB610023BB6151
S214003AF030E004237B6108233B610323FB61022340
S214003B00BB6127E010237B6120233B610523FB611B
S214003B100423BB611EE040237B6180233B610723B7
S214003B20FB610623BB6115E04FF480737B614FF4A5
S214003B3000733B610923FB610823BB610AE04FF475
S214003B4080637B614FF400633B610B23FB610A23B8
S214003B50BB6100BFBB79002B55D00023FB73FB79FC
S214003B60022B11D1FEF702FB0346012B0CD1364B7C
S214003B70DB6B0123FB73354B5B6A03F00303032BFC
S214003B8002D10220FEF700FB304A7B69136600BFB5
S214003B90B9692F48FDF7A9FF0346002BF8D07B79BB
S214003BA0002B4ED000BFF9692948FDF79EFF03465B
S214003BB0002BF8D0FB79022B43D1FB7B002B40D0A7
S214003BC0224B5B6A03F00303032B03D00021022081
S214003BD000F016F9022000F03DF8B860012200213E
S214003BE00220FFF761FFB968022000F075F8174A57
S214003BF07B69136600BFF9691548FDF776FF034633
S214003C00002BF8D01DE0114A3B69136600BF0F4B2E
S214003C10D3F890300121BA6901FA02F21340002B62
S214003C20F5D17B79002B0CD000BF084BD3F8903031
S214003C300121FA6901FA02F21340002BF5D100E0E7
S214003C4000BF2037BD4680BD00300E4000400E400D
S214003C5090400E4080B485B000AF0346FB71FB7900
S214003C60052B2DD801A252F823F000BFB53C00006A
S214003C70853C0000C13C0000913C0000A93C0000CF
S214003C809D3C0000134B1B6AC3F30803FB601AE05D
S214003C90104B1B6903F07F03FB6014E00D4B9B6821
S214003CA003F07F03FB600EE00A4B9B6903F07F0383
S214003CB0FB6008E0074B9B6B03F07F03FB6002E0B2
S214003CC00023FB6000BFFB6818461437BD465DF84E
S214003CD0047B704700400E4080B586B000AF0346B8
S214003CE03960FB710023FB75FB79052B7FD801A299
S214003CF052F823F0B93D00000D3D0000EF3D0000F6
S214003D003B3D00008F3D0000653D00003B68C3F36F
S214003D1008033B6000BF1A213748FDF7E6FE03465E
S214003D20002BF8D1354B1B6A23F4FF7323F00103F5
S214003D3032493A6813430B625AE03B6803F07F034C
S214003D403B6000BF18212C48FDF7CFFE0346002B32
S214003D50F8D12A4B1B6923F07F0228493B6813439E
S214003D600B6145E03B6803F07F033B6000BF1E210C
S214003D702148FDF7BAFE0346002BF8D11F4B9B687F
S214003D8023F07F021D493B6813438B6030E03B689D
S214003D9003F07F033B6000BF19211748FDF7A5FE1F
S214003DA00346002BF8D1154B9B6923F07F0213497D
S214003DB03B6813438B611BE04F233B613B68FB6012
S214003DC0FA683B69934228BF1346FB7500BF1D2166
S214003DD00948FDF78AFE0346002BF8D1074B9B6B7C
S214003DE023F07F02FB7D054913438B6300E000BF91
S214003DF000BF1837BD4680BD40410E4000400E4013
S214003E0080B584B000AF03463960FB71FEF7AEF9AB
S214003E100346012B03D14FF48003FB6009E03B68A7
S214003E20002B03D14FF48003FB6002E0084BFB60DD
S214003E3000BF00BF074BD3F89020FB681340FA681A
S214003E409A42F7D1012318461037BD4680BD00BF01
S214003E50FF3F473A00400E4080B483B000AFEFF318
S214003E6010833B603B687B6072B600BF7B68184679
S214003E700C37BD465DF8047B704780B483B000AF56
S214003E8078607B68002B01D162B600BF00BF0C379C
S214003E90BD465DF8047B704780B483B000AFEFF397
S214003EA010833B603B687B6072B600BF7B68184639
S214003EB00C37BD465DF8047B704780B483B000AF16
S214003EC078607B68002B01D162B600BF00BF0C375C
S214003ED0BD465DF8047B704780B487B000AFF860DD
S214003EE0B9607A60FB6803F1424303F58013DA0099
S214003EF0BB6813449B007B617B697A681A6000BFCD
S214003F001C37BD465DF8047B704780B485B000AFB3
S214003F10786039607B6803F1424303F58013DA006A
S214003F203B6813449B00FB60FB681B68184614370D
S214003F30BD465DF8047B704780B400AF064B1B6837
S214003F4003F04003002B01D1012300E000231846B4
S214003F50BD465DF8047B70473C300E4080B500AF30
S214003F60FFF7EAFF034683F00103DBB2002B08D11C
S214003F7000BF12210448FFF7C8FF0346002BF8D104
S214003F8000E000BF80BD00BF04300E4080B500AF2B
S214003F90FFF7E4FF034B5B681B0C03F00303DBB285
S214003FA0184680BD00300E4080B400AF034B0022A0
S214003FB05A6300BFBD465DF8047B704700300E4074
S214003FC080B400AF044B4AF6E8525A6300BFBD46C1
S214003FD05DF8047B704700BF00300E4080B483B0AD
S214003FE000AF0346FB71FB79C3F10203102202FA0D
S214003FF003F318460C37BD465DF8047B7047000097
S21400400080B485B000AF78601F4B9B69FB60FB688F
S21400401023F03F03FB607B681B78002B01D0042253
S21400402000E000227B685B78002B01D0022300E0D2
S214004030002313437A689278002A01D0082200E011
S214004040002213437A68D278012A01D1012200E0C7
S214004050002213437A6812791343FA681343FB600D
S214004060094AFB689361084B1B6823F440327B685F
S2140040705B791B04044913430B6000BF1437BD462D
S2140040805DF8047B704700BF00300E4080B584B0FA
S21400409000AF78600B46FB70FFF74EFF034683F0D9
S2140040A00103DBB2002B28D17B68002B0FD1154B08
S2140040B0D3F800311B0A03F01F030133BB60FDF782
S2140040C0A1FA0246BB6802FB03F3FB6001E07B68D3
S2140040D0FB600D4B1B78002B09D0FB680B4A934204
S2140040E005D8FB781946022000F012F806E0FB78A7
S2140040F01946002000F00CF800E000BF1037BD465F
S21400410080BD00BF00400E40800A0020002D310117
S21400411090B587B000AF03460A46FB711346BB71E5
S214004120FFF70AFF034683F00103DBB2002B31D111
S214004130FFF72CFF03461A46FB7993422CD0184B08
S214004140D3F800311B0A03F01F0301337B61FDF730
S21400415059FA38613B697A6902FB03F3FB60FB7925
S214004160022B03D102213869FDF7E0FF0D4CFB79E5
S2140041701846FFF733FF03462361BB79002B01D0B7
S214004180FFF7ECFEFB79002B07D100213869FDF71D
S214004190CDFF02E000BF00E000BF1C37BD4690BD6B
S2140041A000400E4000300E4080B400AF0123184699
S2140041B0BD465DF8047B704780B582B000AF0C4BFF
S2140041C0DB6E0B4A43F08073D36600210948FFF785
S2140041D09CFE78607B68002B03D0042000F098FCDF
S2140041E002E0002000F094FC00BF0837BD4680BD0A
S2140041F000300E404C300E4080B48BB000AF012330
S2140042007B627B6A1B053B62324BDB6C1B0A03F04E
S2140042100F03FB61304B1B881A462F4B1B88283335
S2140042205B08134403F12801FB695A1C13469B00E4
S2140042301344B1FBF3F3013BBB61BB697B6107230E
S2140042403B613A697B69934228BF1346BB61BB69F1
S2140042501B06BB611F4BDB6C23F0EE62B9693B6A41
S2140042600B431C491343CB641C4BB3F90030002BA3
S21400427029DB1A4BB3F90030FB81FA89FB89283316
S2140042805B08134403F12802FB6901335900FB69FC
S21400429001335B080B44B2FBF3F3BB60BB687B6087
S2140042A007233B603A687B68934228BF1346BB608F
S2140042B0BB681B01BB60074B1B6D23F070020549F2
S2140042C0BB6813430B6500BF2C37BD465DF8047B07
S2140042D0704700BF00300E40780A00207C0A00209D
S2140042E080B483B000AF78600B467B807B689AB260
S2140042F0054B1A80054A7B88138000BF0C37BD46E5
S2140043005DF8047B704700BF780A00207C0A002016
S21400431080B483B000AF0346FB71FB79002B02D05C
S214004320012B04D007E0074B074A9A6503E0054BCC
S214004330064A9A6500BF00BF0C37BD465DF8047B91
S214004340704700BF00300E4077402057372110B727
S21400435080B485B000AF0346FB710B46BB711346B5
S2140043607B712D4BD3F88031FB60BB79032B1DD8B6
S21400437001A252F823F000BF8943000091430000D9
S2140043809B430000A5430000FB68DBB2FB600FE028
S214004390FB681B0ADBB2FB600AE0FB681B0CDBB2A7
S2140043A0FB6005E0FB681B0EFB6001E000232CE0D1
S2140043B07B79002B11D1FB681B03FB60FB6823F4A1
S2140043C07043002B01D000231FE0144BDB6E23F458
S2140043D070421249FB681343CB667B79012B13D1DD
S2140043E0FB681B03FB60FB6823F47043002B01D0C3
S2140043F000230AE0094BD3F8EC3023F47042074957
S214004400FB681343C1F8EC30012318461437BD4649
S2140044105DF8047B704700BFB081E00F00300E40AF
S21400442080B489B000AFF860B96011461A460B46F2
S214004430FB711346BB710023FB610023BB61BB7994
S2140044401B02FA79002A01D0012200E00022134361
S2140044507B617B6940F2013293425CD07B6940F21B
S2140044600132934200F293807B69B3F5407F00F0FF
S21400447082807B69B3F5407F00F289807B6940F2D9
S214004480012293423BD07B6940F2012293427ED8C0
S2140044907B69B3F5007F62D07B69B3F5007F76D881
S2140044A07B6940F2011293421DD07B69B3F5817F90
S2140044B06DD27B69B3F5807F45D07B69B3F5807F8D
S2140044C065D87B69002B32D07B69012B5FD1364BD8
S2140044D0D3F87431FB61FB691B0ADBB2BB61FB6975
S2140044E0DBB2FB6154E0304BD3F87431FB61FB69FF
S2140044F01B0EBB61FB691B0CDBB2FB6148E02A4B61
S214004500D3F87831FB61FB691B0ADBB2BB61FB6940
S214004510DBB2FB613CE0244BD3F87831FB61FB69EE
S2140045201B0EBB61FB691B0CDBB2FB6130E01E4B54
S214004530D3F86C31FB61FB691B0ADBB2BB61FB691C
S214004540DBB2FB6124E0184BD3F86C31FB61FB69EE
S2140045501B0EBB61FB691B0CDBB2FB6118E0124B48
S214004560D3F87031FB61FB691B0ADBB2BB61FB69E8
S214004570DBB2FB610CE00C4BD3F87031FB61FB69DE
S2140045801B0EBB61FB691B0CDBB2FB6100E000BFCE
S214004590FB68FA691A60BB68BA691A6000BF2437FC
S2140045A0BD465DF8047B7047B081E00F80B584B0EF
S2140045B000AF7860FFF7F8FD7B685B78012B02D0D0
S2140045C07B685B78022B7B68DB884A2B02D800234B
S2140045D0FB6015E07B68DB88B3F5FA7F03D24FF00B
S2140045E08053FB600CE07B68DB8840F6C312934286
S2140045F003D84FF00053FB6002E04FF04053FB60DF
S2140046002F4BDB6C23F0405323F001037A68B2F99A
S2140046100C20002A01DB012100E00021FA680A4391
S21400462027491343CB64264BD3F8EC30244A43F493
S2140046304073C2F8EC307B689A88224B1A80FFF7EA
S214004640BBFD7B681B891A467B68B3F90C3019469C
S2140046501046FFF745FE7B689B88184600F0ECF98D
S2140046607B689B7B1846FFF753FE7B685B880122BE
S2140046700121184600F08AF8034683F00103DBB2F6
S214004680002B01D0002317E00D4BDB6B0C4A43F4E4
S2140046908063D3637B685B78184600F017F87B6806
S2140046A09B7A202B01D1012300E000231A46052126
S2140046B00548FFF711FC012318461037BD4680BD9C
S2140046C000300E407A0A00203C300E4080B584B0A0
S2140046D000AF0346FB712B4B5B6B012B0CBF01231A
S2140046E00023FB73FFF76CFC00BF264B9B6F03F0A9
S2140046F00103002BF9D1234B1B6C03F00303BB60B3
S214004700BB68002B04D001220D211F48FFF7E4FBF5
S214004710BB68DBB2FA799A4208D1FB79002B2CD120
S21400472000220D211848FFF7D7FB26E000BF154BE7
S2140047309B6F03F00103002BF9D1124B1B6C23F087
S2140047400302FB790F4913430B6400BF0D4B9B6FAD
S21400475003F00103002BF9D1FB79002B14BF0123D2
S2140047600023DBB21A460D210748FFF7B5FBFB7B9B
S214004770002B03D0FFF718FC00E000BF1037BD4643
S21400478080BD00BF00300E4054300E4090B595B04E
S21400479000AF78600B46FB701346BB700023FB64CB
S2140047A000237B6407F1240300221A605A609A6093
S2140047B007F1180300221A605A609A6007F10C038A
S2140047C000221A605A609A60984B1B883B8100232F
S2140047D0BB727B68B3F5E16F06D37B6840F6B832F0
S2140047E0934201D8012300E0002387F8433097F86E
S2140047F0433003F0010387F8433097F8433083F0E3
S2140048000103DBB2002B01D000230AE17B68B3F57D
S214004810E16F8CBF0123002387F8423097F84230BF
S214004820002B0AD04FF4E163FB6440F6B8337B6498
S2140048307A6CFB6CD31ABB6409E04FF49663FB6496
S2140048404FF4E1637B647A6CFB6CD31ABB6497F815
S2140048504230002B0BD0764BD3F868313B623B6A74
S2140048601B0E7B613B6A1B0CDBB23B620AE0704BA3
S214004870D3F868313B623B6A1B0ADBB27B613B6A5A
S214004880DBB23B626B4BDB6C1B0FDBB203F003034C
S214004890DBB23B723B7A97F8422007F10C0107F136
S2140048A01800FFF7BDFD634BD3F8EC301B0ADBB2F4
S2140048B003F00303DBB27B727C7A97F8422007F1A1
S2140048C00C03191D07F11803181D2346FFF7A8FD52
S2140048D07A68FB6CD31A79693A6A8A1A03FB02F281
S2140048E0BB6CB2FBF3F3FB62FA6A3B6A1344FB62EF
S2140048F07A68FB6CD31AF968BA698A1A03FB02F263
S214004900BB6CB2FBF3F37B627A6ABB6913447B62CF
S2140049107A68FB6CD31A3969FA698A1A03FB02F2C1
S214004920BB6CB2FBF3F3BB62BA6AFB691344BB62AF
S214004930FA6A7B699A4213D8FA6A3B6A9A420FD39C
S214004940BA6A3B699A420BD8BA6AFB699A4207D39D
S2140049507A6AFB689A4203D87A6ABB699A4201D29D
S21400496000235EE0BB78002B12D0324BDB6D23F4C5
S214004970FE4323F00203FA6A1202134397F842201A
S214004980002A01D0022200E000222A491343CB6508
S214004990FB78002B44D0397A97F84230002218462C
S2140049A0FFF7D6FC034683F00103DBB2002B01D0F1
S2140049B0002336E0797A97F8423001221846FFF74E
S2140049C0C7FC034683F00103DBB2002B01D00023B3
S2140049D027E07B6AFB63BB6ABB63BA6BFB6B9342E5
S2140049E038BF13467B627B6A7B63E7233B633A6B85
S2140049F07B6B934228BF13467B620E4B5B6E23F4A1
S214004A00FF7323F001037A6A5200134397F842209B
S214004A10002A01D0012200E00022064913434B661B
S214004A20012318465437BD4690BD00BF581C0100F0
S214004A30B081E00F00300E4080B584B000AF7860E3
S214004A400023FB60314B1B6F03F00703BB602F4B4B
S214004A50DB6C03F00103002B14D0BB68012B11D9CB
S214004A607B68132B02D80423FB6037E07B68132B8C
S214004A7005D97B68272B02D80823FB602EE010237D
S214004A80FB602BE0214BDB6C03F00103002B14D101
S214004A90BB68012B11D87B68092B02D80423FB6066
S214004AA01CE07B68092B05D97B68132B02D80823EA
S214004AB0FB6013E01023FB6010E0144BDB6C03F08C
S214004AC00103002B0AD0BB68012B07D87B68272B75
S214004AD002D80823FB6001E01023FB60FB68013B63
S214004AE0FB60FB681A02FB681B031343FB60074B63
S214004AF0DB6C23F47F420549FB681343CB64FFF766
S214004B007BFB00BF1037BD4680BD00BF00300E40A7
S214004B1080B584B000AF0346FB7100210E48FFF756
S214004B20F4F9F860FB68002B02D1FB79012B01D960
S214004B30FB68002B094B1B6F23F00702FB79074924
S214004B4013430B67064B1B881846FFF775FF00BF1D
S214004B501037BD4680BD00BF4C300E4000300E40C2
S214004B607A0A002080B487B000AF1F4B1B681B0C6E
S214004B70DBB27B611C4B5B6DDBB23B613B6907EED6
S214004B80903AB8EE677ADFED196AC7EE267A9FED9F
S214004B90187A77EE877AC7ED037A164B1B6ADBB274
S214004BA0BB60144B1B6ADBB27B60BA687B689A42B8
S214004BB0F3D17B6907EE903AB8EE677A3A69BB683C
S214004BC0D31A07EE903AF8EEE76AD7ED037A66EE68
S214004BD0A77A77EE277A17EE903A18461C37BD4626
S214004BE05DF8047B704700BFB081E00F0000C8424C
S214004BF0A8C68B3E00300E4080B485B000AF78600B
S214004C0039607B6803F1C063FB60FB683A681A6032
S214004C1000BF1437BD465DF8047B704780B485B08E
S214004C2000AF786039607B6803F18063FB60FB68E7
S214004C303A681A6000BF1437BD465DF8047B7047BB
S214004C4080B586B000AFF860B9607A60FFF704F907
S214004C507861FB681A68BB68DB431A407968BB68F2
S214004C600B401A43FB681A607869FFF706F900BF25
S214004C701837BD4680BD80B582B000AF03463960A8
S214004C80FB71FB79002B16D0FB79012B13D0FB7937
S214004C90022B10D0FB79032B0DD0FB79042B0AD006
S214004CA0FB79052B07D0FB79062B04D0FB79072B65
S214004CB001D0FB79082BFA7913465B0013441B01DD
S214004CC00C3303F1804303F5082301213A6801FA07
S214004CD002F211461846FFF7A1FF00BF0837BD468F
S214004CE080BD80B582B000AF03463960FB71FB79AA
S214004CF0002B16D0FB79012B13D0FB79022B10D09A
S214004D00FB79032B0DD0FB79042B0AD0FB79052BFE
S214004D1007D0FB79062B04D0FB79072B01D0FB7953
S214004D20082BFA7913465B0013441B010C3303F17E
S214004D30804303F5082301213A6801FA02F211467E
S214004D401846FFF759FF00BF0837BD4680BD80B53F
S214004D5084B000AFB9607A603B600346FB73FB7BB0
S214004D60002B16D0FB7B012B13D0FB7B022B10D025
S214004D70FB7B032B0DD0FB7B042B0AD0FB7B052B88
S214004D8007D0FB7B062B04D0FB7B072B01D0FB7BDD
S214004D90082B7B68002B0DD03B68002B05D0FB7BD7
S214004DA0B9681846FFF79DFF04E0FB7BB968184614
S214004DB0FFF761FFBB68072B18D8FA7B13465B002A
S214004DC013441B01043303F1804303F50823BA6838
S214004DD092000F2101FA02F0BA689200796801FA8F
S214004DE002F201461846FFF72BFF19E0FA7B13463E
S214004DF05B0013441B01083303F1804303F50823CB
S214004E00BA68083A92000F2101FA02F0BA68083A26
S214004E109200796801FA02F201461846FFF710FF81
S214004E207B68002B0DD13B68002B05D0FB7BB96857
S214004E301846FFF756FF04E0FB7BB9681846FFF7F5
S214004E401AFF00BF1037BD4680BD80B483B000AFE8
S214004E5078600B46FB70FB7863F07F03DBB21A4684
S214004E607B689A6500BF0C37BD465DF8047B7047CB
S214004E7080B586B000AFF860B9607A60FB7000233A
S214004E807B61BB68002B0CD1FB682C4A934204D193
S214004E902B48FDF77BFBB86003E02A48FDF776FB5E
S214004EA0B860FB78602B13D0602B14DC402B0CD042
S214004EB0402B10DC002B02D0202B03D00BE010235D
S214004EC07B6109E008237B6106E006237B6103E043
S214004ED004237B6100E000BF7B69002B29D0BB6800
S214004EE05A017B69796801FB03F35B0813443B6155
S214004EF07B697A6802FB03F33A69B2FBF3F33B6122
S214004F003B69203B3B613B69DB003B613A690E4BEA
S214004F1013403B61FB681B6823F06002FB681A6065
S214004F20FB681A68FB781A43FB681A60FB683A69E4
S214004F305A6100BF1837BD4680BD00BF000801405B
S214004F405041070040410500F8FF7F0080B485B05F
S214004F5000AF78600B46FB707B68194A93421AD004
S214004F607B68184A934216D07B68174A934212D041
S214004F707B68164A93420ED07B68154A93420AD045
S214004F807B68144A934206D07B68134A934202D049
S214004F907B68124A9342FB78DB43FB60FB6803F0B6
S214004FA00503FB60FB685A007B68DA60FA787B686A
S214004FB0DA6000BF1437BD465DF8047B704700BF5B
S214004FC0000001400004014000080140000C0140C0
S214004FD00010014000140140004001400044014020
S214004FE080B582B000AF786039607B683F4A9342F4
S214004FF01AD07B683E4A934216D07B683D4A93425D
S21400500012D07B683C4A93420ED07B683B4A934260
S2140050100AD07B683A4A934206D07B68394A934264
S21400502002D07B68384A9342786800F06FF83B6895
S2140050309B7C002B05D07B681B6843F080427B6816
S2140050401A603B68DB7C002B05D03B681B7D19464D
S2140050507868FFF7FAFE3B685B7B1A463B681B8A5C
S21400506013433A68D2891A437B685A603B6859688A
S2140050703B689A683B681B7B7868FFF7F9FE3B68DD
S2140050805B7D002B05D07B681B6843F480327B6811
S2140050901A603B689B7D002B05D07B681B6843F439
S2140050A000427B681A603B68DB7D1B0703F0E0422A
S2140050B03B681B7E1B0503F4E0031A437B681A66F5
S2140050C07B685B6F23F030027B685A677B685B6F98
S2140050D03A68527E1A437B685A673B681B781A46C2
S2140050E07B68DA6000BF0837BD4680BD000001401F
S2140050F00004014000080140000C0140001001407F
S21400510000140140004001400044014080B483B0D8
S21400511000AF78607B68324A93421AD07B68314A87
S214005120934216D07B68304A934212D07B682F4A4F
S21400513093420ED07B682E4A93420AD07B682D4A53
S214005140934206D07B682C4A934202D07B682B4A57
S21400515093427B6840F6AA62DA607B6800221A6097
S2140051607B6841F205025A607B6800229A607B6881
S21400517000225A617B680022DA647B68204A9A64BF
S2140051807B6800221A667B6800225A677B680022CA
S2140051909A677B680022DA677B68114A934203D0DD
S2140051A07B68114A934202D17B6800221A657B68AD
S2140051B000229A657B680B4A934207D07B680B4AAD
S2140051C0934203D07B680A4A934202D17B6800224E
S2140051D0DA6500BF0C37BD465DF8047B704700BF3C
S2140051E0000001400004014000080140000C01409E
S2140051F000100140001401400040014000440140FE
S214005200F9FF010080B483B000AF786000BF7B6810
S2140052101B6903F08003002BF9D07B68DB69DBB2E7
S21400522018460C37BD465DF8047B704780B483B0E3
S21400523000AF78600B46FB7000BF7B681B6903F00D
S2140052404003002BF9D0FA787B685A6300BF0C370E
S214005250BD465DF8047B704780B5ADF5896D00AF3F
S2140052600023C7F844340023C7F840340123C7F8A6
S2140052703C340023C7F8383443F69821214802F01E
S214005280E1FDC7F84404D7F84434002B05DBD7F813
S214005290443443F69822934202DDD7F844342BE098
S2140052A0342002F0ADFEC7F84404D7F84434002B8F
S2140052B013D0154B1B680C33184604F02DFED7F898
S2140052C04414124806F02AFB0F4B1B680C33184692
S2140052D004F035FED7F844340EE00B4B1B680C3355
S2140052E0184604F019FE0A4806F018FB064B1B6821
S2140052F00C33184604F023FE184607F58967BD46AA
S21400530080BD00BF840A00201846002060230100EC
S2140053109823010080B500AFFFF79EFF02F052FE13
S214005320FCE780B400AF00BFBD465DF8047B704765
S21400533080B500AF04211120FEF782F801210B484A
S214005340FDF77CF802210A48FEF77AF802210948A0
S214005350FEF776F802210848FEF772F802210748A1
S214005360FEF76EF80023184680BD00BF30053E00ED
S21400537002001E0003002000040022000500240096
S21400538080B400AF4FF0804301225A64184BD3F824
S214005390B030174A43F00103C2F8B030144BD3F8CC
S2140053A0E030134A43F00803C2F8E030114B1B68A4
S2140053B0104A43F4805313600D4BD3F8E0300C4A88
S2140053C023F00803C2F8E030094BD3F8B030084A9F
S2140053D023F00103C2F8B030074B1B68064A43F4BB
S2140053E0F843136000BFBD465DF8047B704700BFFE
S2140053F000400E4034400540A4310E4080B500AF5A
S21400540000F084F800BF80BD80B500AFFFF7B8FF9E
S21400541000F07CF900F0CEF800F0D6F800F004F9C1
S214005420FFF786FF00F0E4F800F0B6F800BF80BD96
S21400543080B400AF00BFBD465DF8047B704780B502
S21400544000AFFFF7DBFF00BF80BD80B400AF00BF3A
S214005450BD465DF8047B704780B400AF00BFBD4614
S2140054605DF8047B704780B483B000AF7860396025
S2140054707B68DA6C3B68DB431A407B68DA6400BF03
S2140054800C37BD465DF8047B70470000B0B594B09D
S21400549002AF194B07F128041D460FCD0FC495E83F
S2140054A0070084E807004FF4E1333B630023FB86E4
S2140054B04FF480533B87002387F841300F4B07F1AA
S2140054C014041D460FCD0FC42B6823600C4B3C1DE7
S2140054D00FCB84E80F0007F1140307F12802391DEB
S2140054E008480090084800F067FC78647B6C184613
S2140054F04837BD46B0BD00BFC82A0100E42A0100F7
S214005500F82A0100344500201C45002080B500AF75
S214005510FFF7BCFF00BF80BD80B500AF034B1B6824
S214005520184600F065FD00BF80BD00BF1C4500208A
S21400553080B582B000AF114B1B687B607B685B6AEE
S2140055401B6903F08003002B13D0786800F0D3FAB1
S2140055500346002B07D07B685B6A1846FFF752FEAF
S2140055600346FB7005E07B685B6A04211846FFF77C
S2140055707AFF00BF0837BD4680BD00BF1C4500202F
S21400558080B500AF0123042201210420FFF7DFFBD2
S2140055900023184680BD000080B500AF01210448F6
S2140055A0FCF74CFFFFF7BDFEFFF7EAFF00BF80BD2C
S2140055B000550A0080B500AF01210248FCF73EFF07
S2140055C000BF80BD00550A0090B585B000AF074B00
S2140055D03C460FCB84E80F003B461846FEF7E6FF36
S2140055E0002318461437BD4690BD00BF082B0100A7
S2140055F080B582B000AF3B4600221A609A80002336
S2140056003B7000237B700023BB700023FB700023DD
S2140056103B7102237B713B461846FEF7F1FC0023E4
S21400562018460837BD4680BD80B588B000AF1E4A14
S21400563007F1100307CA83E807000023FB764FF044
S214005640FF33FB61194B5B6803F40023002B04D186
S214005650164B9B68C3F30803FB61FB69B3F1FF3F7E
S21400566008D1134B1B884FF6FF72934202D0104BA3
S2140056701B88FB61FB69B3F1FF3F01D18423FB610B
S214005680FB69B3F1FF3F02D0FB699BB27B820948FE
S214005690FCF73EF807F110031846FEF79BF90023C7
S2140056A018462037BD4680BD182B0100B081E00F9C
S2140056B00001E00F80F0FA0280B483B000AF03462A
S2140056C03960FB7197F90730002B0ADB3B68DAB2CA
S2140056D00C4997F907305201D2B20B4483F80023E5
S2140056E00AE03B68DAB20849FB7903F00F03043B93
S2140056F05201D2B20B441A7600BF0C37BD465DF895
S214005700047B704700E100E000ED00E080B582B069
S21400571000AFFB23FB710BE097F907300521184615
S214005720FFF7CAFF97F90730DBB20133DBB2FB7134
S21400573097F90730452BEFDD002318460837BD469E
S21400574080BD000080B584B000AF7860FEF784FBB3
S214005750F860054A7B681360F868FEF78EFB002346
S21400576018461037BD4680BD8C45002080B582B0F7
S21400577000AF00237B60FEF76FFB3860054B1B68AD
S2140057807B603868FEF779FB7B6818460837BD46AD
S21400579080BD00BF8C45002080B584B000AFF860A7
S2140057A0B9607A60FB68002B02D1FFF7DFFFF86074
S2140057B0FB68002B0CD0FB685B68002B08D0FB68EE
S2140057C05B68FA6810687A68B9689847034600E02C
S2140057D0232318461037BD4680BD90B587B000AF6E
S2140057E0F860B9607A603B6007F110037B61FB6884
S2140057F0002B02D1FFF7BAFFF8603B68002B01D000
S2140058003B687B61FB68002B0DD0FB689B68002B18
S21400581009D0FB689C68FB6818687B697A68B96879
S214005820A047034600E0232318461C37BD4690BD1C
S21400583080B483B000AF7860002318460C37BD46AE
S2140058405DF8047B704780B483B000AF786000BF1B
S214005850FDE780B483B000AF786039603B684FF4F2
S21400586000525A60002318460C37BD465DF8047B8C
S214005870704780B400AF01231846BD465DF8047B30
S214005880704780B483B000AF7860012318460C37A9
S214005890BD465DF8047B704780B483B000AF786087
S2140058A039604FF0FF3318460C37BD465DF8047B71
S2140058B0704780B485B000AFF860B9607A600023A6
S2140058C018461437BD465DF8047B704780B586B031
S2140058D000AFF860B9607A6000237B617A6807F1F0
S2140058E01403B9680020FFF778FF7B69002B02D10C
S2140058F04FF0FF3300E07B6918461837BD4680BD81
S21400590080B586B000AFF860B9607A607B681A46EA
S214005910B9680020FFF740FF78617B6818461837A3
S214005920BD4680BD80B483B000AF0346FB7197F9D7
S2140059300730002B0BDBFB7903F01F02074997F9B2
S21400594007305B09012000FA02F241F8232000BF6D
S2140059500C37BD465DF8047B704700BF00E100E0F1
S21400596080B483B000AF0346FB7197F90730002B75
S21400597012DBFB7903F01F020A4997F907305B092F
S214005980012000FA02F2203341F82320BFF34F8FA4
S21400599000BFBFF36F8F00BF00BF0C37BD465DF87A
S2140059A0047B704700E100E080B483B000AF03469C
S2140059B0FB7197F90730002B0CDBFB7903F01F0215
S2140059C0074997F907305B09012000FA02F26033B5
S2140059D041F8232000BF0C37BD465DF8047B7047B6
S2140059E000E100E080B584B000AFF860B9607A608E
S2140059F03B607B685B68002B01D1222349E07B6813
S214005A009B68002B01D1212343E024220021B868A3
S214005A10FAF79EFE7B685A68BB689A617B689A684C
S214005A20BB68DA617B681A7BBB6883F82020BB689A
S214005A303A681A60BB68BA695A60BB68FA699A60C5
S214005A407B6893F90020BB6883F82120FB68BA685E
S214005A501A60FB68114A5A60FB68114A9A60FB6834
S214005A60104A1A61FB68104A5A61FB680F4ADA60EE
S214005A707B6893F900301846FFF796FF7B6893F92A
S214005A8000301846FFF74EFFFB681846FFF75AFE31
S214005A90002318461037BD4680BD00BFE55B0000FA
S214005AA07F5C0000B15A0000D55A0000715B000010
S214005AB080B485B000AF78600B46FB707B68FB60F7
S214005AC0FB68FA7883F8202000BF1437BD465DF8DF
S214005AD0047B704780B485B000AF78607B68FB605D
S214005AE0FB6893F82030FB72FB7A18461437BD46E5
S214005AF05DF8047B704780B485B000AF78607B6843
